:03000000020800F3
:0C080000787FE4F6D8FD758120020847DF
:08096C000208012CC100C101C9
:1008F300C2A7AF09AE08120908C2A4D2A5C2A6C2F4
:05090300A7AF09AE08DA
:10090800E4FDFCC3ED9FEC9E5015E4FBFA0BBB0025
:0F091800010AEB64644A70F50DBD00010C80E428
:0109270022AD
:10094B00D2A4C2A5C2A61208F3C2A4C2A5D2A612F3
:10095B000902C2A4C2A5C2A6D2A7AF09AE0802095A
:01096B000883
:10092800C2A4C2A5C2A6D2A7120904C2A4C2A5D253
:10093800A61208F3D2A4C2A5C2A6C2A7AF09AE08E0
:0309480002090899
:10088C00D2A0D2A1209002D201209402C2012091C8
:10089C0002B200209217D3E5099432E50894004087
:1008AC000C749C2509F50974FF3508F5082093167E
:1008BC00C3E50994E8E5089403500B74642509F525
:1008CC0009E43508F50830010D20000512094B80AC
:1008DC000D1209288008C2A7C2A6C2A5C2A47F0A0D
:0708EC007E00120908809D47
:10080C0002088CE493A3F8E493A34003F68001F26E
:10081C0008DFF48029E493A3F85407240CC8C333ED
:10082C00C4540F4420C8834004F456800146F6DFBC
:10083C00E4800B010204081020408090096CE47ED7
:10084C00019360BCA3FF543F30E509541FFEE493B1
:10085C00A360010ECF54C025E060A840B8E493A378
:10086C00FAE493A3F8E493A3C8C582C8CAC583CAA3
:10087C00F0A3C8C582C8CAC583CADFE9DEE780BE5B
:010974000082
:00000001FF
