:03000000020800F3
:0C080000787FE4F6D8FD75811A020847E5
:1009CF00707265737365642076616C7565206973E9
:0209DF003A00DC
:1009BC0010083031323334353637383941424344FC
:0209CC0045469E
:0A094000C2A18F90D2A27F027E00B8
:10094A00E4FDFCC3ED9FEC9E5015E4FBFA0BBB00E3
:0F095A00010ABA04F8BBFBF50DBD00010C80E4E7
:01096900226B
:0809E100C2A0120940C2A222CB
:0809E900D2A0120940C2A222B3
:10096A008B188A19891AAB18AA19A91A12098F6041
:10097A0013051AE51A7002051914F912098FFF12E4
:05098A0009E980E222F2
:1009A8007F381209E17F0C1209E17F011209E17F0A
:0409B800800209E1CF
:10088C00E4F518C3E518940474809480507775804F
:10089C00FFAF18A8077401088002C333D8FCF452C8
:1008AC00807F017E0012094AE4F9E9C39404748044
:1008BC009480504CE92404FF7E007401A807088042
:1008CC0005C333CE33CED8F9FFAD80EF5D702E7FEC
:1008DC0014FE12094AE92404FF7E007401A80708DB
:1008EC008005C333CE33CED8F9FFAD80EF5D60E524
:1008FC00E51825E025E0240829F8E6FF220980AA5E
:07090C00051802088F7F00AF
:0109130022C1
:100914001209A87F801209E17BFF7A0979CF1209B5
:100924006A12088CA907E960F87FC01209E1AF01D7
:0C0934001209E97FF47E0112094A80E5F7
:10080C00020914E493A3F8E493A34003F68001F2E5
:10081C0008DFF48029E493A3F85407240CC8C333ED
:10082C00C4540F4420C8834004F456800146F6DFBC
:10083C00E4800B01020408102040809009BCE47E87
:10084C00019360BCA3FF543F30E509541FFEE493B1
:10085C00A360010ECF54C025E060A840B8E493A378
:10086C00FAE493A3F8E493A3C8C582C8CAC583CAA3
:10087C00F0A3C8C582C8CAC583CADFE9DEE780BE5B
:0109CE000028
:10098F00BB010689828A83E0225002E722BBFE0266
:09099F00E32289828A83E4932299
:00000001FF
