:03000000020800F3
:0C080000787FE4F6D8FD758111020847EE
:0C08DA000A083F065B4F666D7D077F6FCC
:1008BA00E4FDFCC3ED9FEC9E5015E4FBFA0BBB0074
:0F08CA00010ABA03F8BBE8F50DBD00010C80E48C
:0108D90022FC
:10088C00C280C281C282C283E4F9E9C3940A748033
:10089C00948050F4740829F8E6F4F5A0D280D28143
:0E08AC00D282D2837FC87E001208BA0980DC97
:10080C0002088CE493A3F8E493A34003F68001F26E
:10081C0008DFF48029E493A3F85407240CC8C333ED
:10082C00C4540F4420C8834004F456800146F6DFBC
:10083C00E4800B01020408102040809008DAE47E6A
:10084C00019360BCA3FF543F30E509541FFEE493B1
:10085C00A360010ECF54C025E060A840B8E493A378
:10086C00FAE493A3F8E493A3C8C582C8CAC583CAA3
:10087C00F0A3C8C582C8CAC583CADFE9DEE780BE5B
:0108E6000011
:00000001FF
