:03000000020800F3
:0C080000787FE4F6D8FD758128020847D7
:10090B001008C0F9A4B0999282F880908883C6A190
:10091B00868E1018000102030405060708090A0B4E
:04092B000C0D0E0F92
:10095300E4FDFCC3ED9FEC9E5015E4FBFA0BBB00DA
:0F096300010ABA04F8BBFBF50DBD00010C80E4DE
:010972002262
:10088C00E4F528C3E528940474809480506E758038
:10089C00FFAF28A8077401088002C333D8FCF452B8
:1008AC00807F027E00120953E4F9E9C3940474803A
:1008BC00948050447E007410A801088005C333CE88
:1008CC0033CED8F9FFAD80EF5D702A7F14FE12098C
:1008DC00537E007410A801088005C333CE33CED8E4
:1008EC00F9FFAD80EF5D60E9E52825E025E02418EF
:0E08FC0029F8E6FF220980B2052880877FFFD9
:01090A0022CA
:1009730074082FF8E6F590C2A3C2A2C2A1C2A07F59
:0F098300057E00120953D2A3D2A2D2A1D2A02284
:10093000D2A3D2A2D2A1D2A07590FF12088CA9078F
:10094000E9F460F7C3EF94107480948050ED1209BD
:030950007380E8C9
:10080C00020930E493A3F8E493A34003F68001F2C9
:10081C0008DFF48029E493A3F85407240CC8C333ED
:10082C00C4540F4420C8834004F456800146F6DFBC
:10083C00E4800B010204081020408090090BE47E38
:10084C00019360BCA3FF543F30E509541FFEE493B1
:10085C00A360010ECF54C025E060A840B8E493A378
:10086C00FAE493A3F8E493A3C8C582C8CAC583CAA3
:10087C00F0A3C8C582C8CAC583CADFE9DEE780BE5B
:01092F0000C7
:00000001FF
