:03000000020A35BC
:0C0A3500787FE4F6D8FD75810F02080000
:070A560054696D653A2000B0
:08093100D2B3D2B27F017E00B7
:10093900E4FDFCC3ED9FEC9E5015E4FBFA0BBB00F4
:0F094900010ABA04F8BBFBF50DBD00010C80E4F8
:01095800227C
:100A0200C2A0C2A18F90D2A27F027E00120939C277
:020A1200A2221E
:100A1400D2A0C2A18F90D2A27F027E00120939C255
:020A2400A2220C
:100959008B0B8A0C890DAB0BAA0CA90D1209D5605A
:1009690013050DE50D7002050C14F91209D5FF12D6
:050979000A1480E222D7
:1009EE007F38120A027F0C120A027F01120A027F5E
:0409FE0080020A0267
:1009A200A907E975F00A842430FF120A14E975F0E8
:0A09B2000A84E5F02430FF020A1465
:0B0A4100120931C2B3120939C2B222FF
:0A0A4C00C2B3120933D2B302093914
:020902008F0F55
:10090400E4F9E9C3940874809480501BE50F30E740
:10091400028001C392B3120933C2B2120939E50F3E
:0C09240025E0F50F0980DB120931C2B29A
:0109300022A4
:0208C3008F0C98
:1008C500E4F50DD2B3F9E9C3940874809480501906
:1008D500120933E50D25E0FFA2B3E4334FF50DC250
:1008E500B27F011209390980DDE50C6003C380017F
:0C08F500D392B3120933C2B2D2B3AF0DDC
:0109010022D3
:02097E008F0BDD
:10098000120A417FD0120902AF0B120902120A416A
:100990007FD1120902E4FF1208C3A907120A4CAF63
:0109A0000155
:0109A1002233
:1009BC008F0D8D0E120A417FD0120902AF0D120954
:0909CC0002AF0E120902020A4CEE
:100876008F0B8D0CEB75F00A84C454F0FFEB75F00A
:100886000A84E5F04FFDE4FF1209BCE50C75F00A99
:1008960084C454F0FFE50C75F00A84E5F04FFD7F43
:1008A600011209BCE50B75F00A84C454F0FFE50B90
:0D08B60075F00A84E5F04FFD7F020209BCD9
:0F0A2600EFC4540F75F00AA4FEEF540F2EFF22F9
:10080000750AFF1209EE7F80120A027BFF7A0A79CD
:1008100056120959E4FBFD7F0C120876E4FF120919
:100820007EEF547FFF120A268F087F0112097EEFA8
:10083000547FFF120A268F097F0212097EEF543F70
:10084000FF120A26A907E508650A60217F86120AB9
:1008500002AF011209A27F3A120A14AF091209A2CB
:100860007F3A120A14AF081209A285080A7F327E65
:060870000012093980A608
:1009D500BB010689828A83E0225002E722BBFE0220
:0909E500E32289828A83E4932253
:00000001FF
