:030000000209C62C
:0C09C600787FE4F6D8FD75810C02080073
:0609EA0054696D653A003E
:0A08A900C2A18F90D2A27F027E0050
:1008B300E4FDFCC3ED9FEC9E5015E4FBFA0BBB007B
:0F08C300010ABA04F8BBFBF50DBD00010C80E47F
:0108D2002203
:0809DB00C2A01208A9C2A22269
:0909B50075F00A84E5F02430FF1E
:0809BE00D2A01208A9C2A22276
:100921008B0A8A0B890CAB0AAA0BA90C120963600A
:1009310013050CE50C7002050B14F9120963FF1283
:0509410009BE80E22266
:10097C007F381209DB7F0C1209DB7F011209DB7F48
:04098C00800209DB01
:0909D200D2B3D2B2C2B3C2B22208
:0709E300C2B3D2B2D2B3226D
:1008D300E4FEEEC39408748094805014EF30E70272
:1008E3008001C392B3D2B2EF25E0FFC2B20E80E221
:0608F300D2B3D2B2C2B282
:0108F90022DC
:1008FA00E4FFD2B3FEEEC39408748094805011D200
:10090A00B2EF25E0FFA2B3E4334FFFC2B20E80E597
:06091A00D2B3D2B2C2B25A
:0109200022B4
:10099000EF75F00A84C454F0FEEF75F00A84E5F0B8
:0309A0004EFF22E5
:0309A300120946F0
:0F09A600EFC4540F75F00AA4FEEF540F2EFF227A
:10087B00AC071209D27FD01208D3E4FF1208D3AF12
:10088B0003120990EF547FFF1208D3AF05120990A2
:0E089B001208D3AF041209901208D30209E329
:02094600AD07FB
:100948001209D27FD01208D3AF051208D31209D2E8
:0B0958007FD11208D31208FA0209E355
:1008000012097CE4FBFD7F0C12087B7F801209DB60
:100810007BFF7A0979EA120921E4FF1209A38F0804
:100820007F011209A38F097F021209461209A6A9A6
:10083000077FC01209DBE975F00A842430FF120932
:10084000BEE91209B57F3A1209BEE50975F00A84BE
:100850002430FF1209BEE5091209B57F3A1209BE1C
:10086000E50875F00A842430FF1209BEE508120974
:0B087000B57F0A7E001208B3020819D1
:10096300BB010689828A83E0225002E722BBFE0292
:09097300E32289828A83E49322C5
:00000001FF
