:030000000208EC07
:0C08EC00787FE4F6D8FD7581200208DA60
:08086E00D2A3D2A27F017E009B
:10087600E4FDFCC3ED9FEC9E5015E4FBFA0BBB00B8
:0F088600010AEB647F4A70F50DBD00010C80E4A0
:010895002240
:0B08F80012086EC2A3120876C2A222F2
:0A090300C2A3120870D2A302087606
:02083C008F0A21
:10083E00E4F9E9C39408748094805018E50A30E70F
:10084E00028001C392A3120870C2A2E50A25E0F548
:0F085E000A0980DE12086EA2A39200C2A2A200B5
:01086D002268
:10080000E4F509D2A3F9E9C39408748094805019DF
:10081000120870E50925E0FFA2A3E4334FF509C2F1
:10082000A27F011208760980DD300003C38001D366
:0B08300092A3120870C2A2D2A3AF096D
:01083B00229A
:1008BA008F088D091208F87FA012083CAF081208A9
:1008CA003CAF0912083C1209037F327E0002087607
:020896008F08C9
:100898001208F87FA012083CAF0812083C1208F8AA
:1008A8007FA112083CC200120800A907120903AF71
:0108B800013E
:0108B900221C
:1008DA00E4F5907DAAFF1208BAE4FF1208968F90F9
:0208EA0080FE8E
:00000001FF
